{
  "contractName": "Pausable",
  "abi": [
    {
      "inputs": [],
      "stateMutability": "nonpayable",
      "type": "constructor"
    },
    {
      "anonymous": false,
      "inputs": [
        {
          "indexed": false,
          "internalType": "address",
          "name": "account",
          "type": "address"
        }
      ],
      "name": "PausedEvt",
      "type": "event"
    },
    {
      "anonymous": false,
      "inputs": [
        {
          "indexed": false,
          "internalType": "address",
          "name": "account",
          "type": "address"
        }
      ],
      "name": "UnpausedEvt",
      "type": "event"
    },
    {
      "inputs": [
        {
          "internalType": "address",
          "name": "account",
          "type": "address"
        }
      ],
      "name": "addAdmin",
      "outputs": [],
      "stateMutability": "nonpayable",
      "type": "function"
    },
    {
      "inputs": [
        {
          "internalType": "address",
          "name": "account",
          "type": "address"
        }
      ],
      "name": "isAdmin",
      "outputs": [
        {
          "internalType": "bool",
          "name": "",
          "type": "bool"
        }
      ],
      "stateMutability": "view",
      "type": "function"
    },
    {
      "inputs": [],
      "name": "owner",
      "outputs": [
        {
          "internalType": "address",
          "name": "",
          "type": "address"
        }
      ],
      "stateMutability": "view",
      "type": "function"
    },
    {
      "inputs": [
        {
          "internalType": "address",
          "name": "account",
          "type": "address"
        }
      ],
      "name": "removeAdmin",
      "outputs": [],
      "stateMutability": "nonpayable",
      "type": "function"
    },
    {
      "inputs": [
        {
          "internalType": "address",
          "name": "newOwner",
          "type": "address"
        }
      ],
      "name": "transferOwnership",
      "outputs": [],
      "stateMutability": "nonpayable",
      "type": "function"
    },
    {
      "inputs": [],
      "name": "pause",
      "outputs": [],
      "stateMutability": "nonpayable",
      "type": "function"
    },
    {
      "inputs": [],
      "name": "unpause",
      "outputs": [],
      "stateMutability": "nonpayable",
      "type": "function"
    }
  ],
  "bytecode": "0x608060405234801561001057600080fd5b50336000806101000a81548173ffffffffffffffffffffffffffffffffffffffff021916908373ffffffffffffffffffffffffffffffffffffffff16021790555060018060003373ffffffffffffffffffffffffffffffffffffffff1673ffffffffffffffffffffffffffffffffffffffff16815260200190815260200160002060006101000a81548160ff0219169083151502179055506000600260006101000a81548160ff0219169083151502179055506107e5806100d26000396000f3fe608060405234801561001057600080fd5b506004361061007d5760003560e01c8063704802751161005b57806370480275146100d85780638456cb59146100f45780638da5cb5b146100fe578063f2fde38b1461011c5761007d565b80631785f53c1461008257806324d7806c1461009e5780633f4ba83a146100ce575b600080fd5b61009c60048036038101906100979190610722565b610138565b005b6100b860048036038101906100b39190610722565b61027a565b6040516100c5919061076a565b60405180910390f35b6100d6610329565b005b6100f260048036038101906100ed9190610722565b6103f3565b005b6100fc610535565b005b610106610600565b6040516101139190610794565b60405180910390f35b61013660048036038101906101319190610722565b610624565b005b60008054906101000a900473ffffffffffffffffffffffffffffffffffffffff1673ffffffffffffffffffffffffffffffffffffffff163373ffffffffffffffffffffffffffffffffffffffff161461019057600080fd5b600073ffffffffffffffffffffffffffffffffffffffff168173ffffffffffffffffffffffffffffffffffffffff16141580156102165750600160008273ffffffffffffffffffffffffffffffffffffffff1673ffffffffffffffffffffffffffffffffffffffff16815260200190815260200160002060009054906101000a900460ff165b61021f57600080fd5b6000600160008373ffffffffffffffffffffffffffffffffffffffff1673ffffffffffffffffffffffffffffffffffffffff16815260200190815260200160002060006101000a81548160ff02191690831515021790555050565b60008060009054906101000a900473ffffffffffffffffffffffffffffffffffffffff1673ffffffffffffffffffffffffffffffffffffffff163373ffffffffffffffffffffffffffffffffffffffff16146102d557600080fd5b600160008373ffffffffffffffffffffffffffffffffffffffff1673ffffffffffffffffffffffffffffffffffffffff16815260200190815260200160002060009054906101000a900460ff169050919050565b60011515600160003373ffffffffffffffffffffffffffffffffffffffff1673ffffffffffffffffffffffffffffffffffffffff16815260200190815260200160002060009054906101000a900460ff1615151461038657600080fd5b600260009054906101000a900460ff1661039f57600080fd5b6000600260006101000a81548160ff0219169083151502179055507f5b458f30661b64d53169f3d852fe57bbaf55cb8f5615af19114f2c9b7bb52c0e336040516103e99190610794565b60405180910390a1565b60008054906101000a900473ffffffffffffffffffffffffffffffffffffffff1673ffffffffffffffffffffffffffffffffffffffff163373ffffffffffffffffffffffffffffffffffffffff161461044b57600080fd5b600073ffffffffffffffffffffffffffffffffffffffff168173ffffffffffffffffffffffffffffffffffffffff16141580156104d25750600160008273ffffffffffffffffffffffffffffffffffffffff1673ffffffffffffffffffffffffffffffffffffffff16815260200190815260200160002060009054906101000a900460ff16155b6104db57600080fd5b60018060008373ffffffffffffffffffffffffffffffffffffffff1673ffffffffffffffffffffffffffffffffffffffff16815260200190815260200160002060006101000a81548160ff02191690831515021790555050565b60011515600160003373ffffffffffffffffffffffffffffffffffffffff1673ffffffffffffffffffffffffffffffffffffffff16815260200190815260200160002060009054906101000a900460ff1615151461059257600080fd5b600260009054906101000a900460ff16156105ac57600080fd5b6001600260006101000a81548160ff0219169083151502179055507f507601cb28731d1f402d3760797e1a1b121a6b956be4fef723175be45cce5663336040516105f69190610794565b60405180910390a1565b60008054906101000a900473ffffffffffffffffffffffffffffffffffffffff1681565b60008054906101000a900473ffffffffffffffffffffffffffffffffffffffff1673ffffffffffffffffffffffffffffffffffffffff163373ffffffffffffffffffffffffffffffffffffffff161461067c57600080fd5b806000806101000a81548173ffffffffffffffffffffffffffffffffffffffff021916908373ffffffffffffffffffffffffffffffffffffffff16021790555050565b600080fd5b600073ffffffffffffffffffffffffffffffffffffffff82169050919050565b60006106ef826106c4565b9050919050565b6106ff816106e4565b811461070a57600080fd5b50565b60008135905061071c816106f6565b92915050565b600060208284031215610738576107376106bf565b5b60006107468482850161070d565b91505092915050565b60008115159050919050565b6107648161074f565b82525050565b600060208201905061077f600083018461075b565b92915050565b61078e816106e4565b82525050565b60006020820190506107a96000830184610785565b9291505056fea2646970667358221220d781ac7cead4b615dc5e1ae342232fc4db142d7f926561ed87e7a5437cc020fe64736f6c63430008090033",
  "immutableReferences": {},
  "source": "// SPDX-License-Identifier: UNLICENSED\npragma solidity >=0.8.9;\n\nimport \"./Owned.sol\";\n\ncontract Pausable is Owned {\n\n    event PausedEvt(address account);\n    event UnpausedEvt(address account);\n    bool private paused;\n\n    constructor () {\n        paused = false;\n    }\n\n    modifier whenNotPaused() {\n        require(!paused);\n        _;\n    }\n\n    modifier whenPaused() {\n        require(paused);\n        _;\n    }\n\n    function pause() public onlyAdmin whenNotPaused {\n        paused = true;\n        emit PausedEvt(msg.sender);\n    }\n\n    function unpause() public onlyAdmin whenPaused {\n        paused = false;\n        emit UnpausedEvt(msg.sender);\n    }\n}",
  "sourcePath": "/Users/tcelikel/Development/MyERC20Tokens/contracts/Pausable.sol",
  "compiler": {
    "name": "solc",
    "version": "0.8.9+commit.e5eed63a.Emscripten.clang"
  },
  "schemaVersion": "3.4.3",
  "updatedAt": "2021-12-08T01:41:28.877Z",
  "devdoc": {
    "kind": "dev",
    "methods": {},
    "version": 1
  },
  "userdoc": {
    "kind": "user",
    "methods": {},
    "version": 1
  }
}